{
  "_format": "hh-sol-artifact-1",
  "contractName": "Escrow",
  "sourceName": "src/contracts/Escrow.sol",
  "abi": [
    {
      "inputs": [
        {
          "internalType": "address",
          "name": "_nftAddress",
          "type": "address"
        },
        {
          "internalType": "address payable",
          "name": "_seller",
          "type": "address"
        },
        {
          "internalType": "address",
          "name": "_inspector",
          "type": "address"
        },
        {
          "internalType": "address",
          "name": "_lender",
          "type": "address"
        }
      ],
      "stateMutability": "nonpayable",
      "type": "constructor"
    },
    {
      "inputs": [
        {
          "internalType": "uint256",
          "name": "_nftId",
          "type": "uint256"
        }
      ],
      "name": "getBuyer",
      "outputs": [
        {
          "internalType": "address",
          "name": "",
          "type": "address"
        }
      ],
      "stateMutability": "view",
      "type": "function"
    },
    {
      "inputs": [
        {
          "internalType": "uint256",
          "name": "_nftId",
          "type": "uint256"
        }
      ],
      "name": "getEscrowAmount",
      "outputs": [
        {
          "internalType": "uint256",
          "name": "",
          "type": "uint256"
        }
      ],
      "stateMutability": "view",
      "type": "function"
    },
    {
      "inputs": [
        {
          "internalType": "uint256",
          "name": "_nftId",
          "type": "uint256"
        }
      ],
      "name": "getPurchasePrice",
      "outputs": [
        {
          "internalType": "uint256",
          "name": "",
          "type": "uint256"
        }
      ],
      "stateMutability": "view",
      "type": "function"
    },
    {
      "inputs": [],
      "name": "inspector",
      "outputs": [
        {
          "internalType": "address",
          "name": "",
          "type": "address"
        }
      ],
      "stateMutability": "view",
      "type": "function"
    },
    {
      "inputs": [
        {
          "internalType": "uint256",
          "name": "_nftId",
          "type": "uint256"
        }
      ],
      "name": "isListed",
      "outputs": [
        {
          "internalType": "bool",
          "name": "",
          "type": "bool"
        }
      ],
      "stateMutability": "view",
      "type": "function"
    },
    {
      "inputs": [],
      "name": "lender",
      "outputs": [
        {
          "internalType": "address",
          "name": "",
          "type": "address"
        }
      ],
      "stateMutability": "view",
      "type": "function"
    },
    {
      "inputs": [
        {
          "internalType": "uint256",
          "name": "_nftId",
          "type": "uint256"
        },
        {
          "internalType": "address",
          "name": "_buyer",
          "type": "address"
        },
        {
          "internalType": "uint256",
          "name": "_purchasePrice",
          "type": "uint256"
        },
        {
          "internalType": "uint256",
          "name": "_escrowAmount",
          "type": "uint256"
        }
      ],
      "name": "list",
      "outputs": [],
      "stateMutability": "payable",
      "type": "function"
    },
    {
      "inputs": [],
      "name": "nftAddress",
      "outputs": [
        {
          "internalType": "address",
          "name": "",
          "type": "address"
        }
      ],
      "stateMutability": "view",
      "type": "function"
    },
    {
      "inputs": [
        {
          "internalType": "uint256",
          "name": "",
          "type": "uint256"
        }
      ],
      "name": "properties",
      "outputs": [
        {
          "internalType": "bool",
          "name": "listed",
          "type": "bool"
        },
        {
          "internalType": "uint256",
          "name": "purchasePrice",
          "type": "uint256"
        },
        {
          "internalType": "uint256",
          "name": "escrowAmount",
          "type": "uint256"
        },
        {
          "internalType": "address",
          "name": "buyer",
          "type": "address"
        }
      ],
      "stateMutability": "view",
      "type": "function"
    },
    {
      "inputs": [],
      "name": "seller",
      "outputs": [
        {
          "internalType": "address payable",
          "name": "",
          "type": "address"
        }
      ],
      "stateMutability": "view",
      "type": "function"
    }
  ],
  "bytecode": "0x60806040523480156200001157600080fd5b5060405162000bb938038062000bb98339818101604052810190620000379190620001f3565b836000806101000a81548173ffffffffffffffffffffffffffffffffffffffff021916908373ffffffffffffffffffffffffffffffffffffffff16021790555082600160006101000a81548173ffffffffffffffffffffffffffffffffffffffff021916908373ffffffffffffffffffffffffffffffffffffffff16021790555081600260006101000a81548173ffffffffffffffffffffffffffffffffffffffff021916908373ffffffffffffffffffffffffffffffffffffffff16021790555080600360006101000a81548173ffffffffffffffffffffffffffffffffffffffff021916908373ffffffffffffffffffffffffffffffffffffffff1602179055505050505062000265565b600080fd5b600073ffffffffffffffffffffffffffffffffffffffff82169050919050565b6000620001768262000149565b9050919050565b620001888162000169565b81146200019457600080fd5b50565b600081519050620001a8816200017d565b92915050565b6000620001bb8262000149565b9050919050565b620001cd81620001ae565b8114620001d957600080fd5b50565b600081519050620001ed81620001c2565b92915050565b6000806000806080858703121562000210576200020f62000144565b5b6000620002208782880162000197565b94505060206200023387828801620001dc565b9350506040620002468782880162000197565b9250506060620002598782880162000197565b91505092959194509250565b61094480620002756000396000f3fe6080604052600436106100915760003560e01c8063c59d563311610059578063c59d563314610191578063c9f0ec7e146101ce578063ed2cee9e146101ea578063f7b1080814610215578063fcce48831461025557610091565b806308551a5314610096578063451ee191146100c15780635bf608b8146100fe5780635bf8633a1461013b578063bcead63e14610166575b600080fd5b3480156100a257600080fd5b506100ab610292565b6040516100b89190610663565b60405180910390f35b3480156100cd57600080fd5b506100e860048036038101906100e391906106b9565b6102b8565b6040516100f591906106f5565b60405180910390f35b34801561010a57600080fd5b50610125600480360381019061012091906106b9565b6102d8565b6040516101329190610731565b60405180910390f35b34801561014757600080fd5b50610150610318565b60405161015d9190610731565b60405180910390f35b34801561017257600080fd5b5061017b61033c565b6040516101889190610731565b60405180910390f35b34801561019d57600080fd5b506101b860048036038101906101b391906106b9565b610362565b6040516101c591906106f5565b60405180910390f35b6101e860048036038101906101e39190610778565b610382565b005b3480156101f657600080fd5b506101ff610572565b60405161020c9190610731565b60405180910390f35b34801561022157600080fd5b5061023c600480360381019061023791906106b9565b610598565b60405161024c94939291906107fa565b60405180910390f35b34801561026157600080fd5b5061027c600480360381019061027791906106b9565b6105f5565b604051610289919061083f565b60405180910390f35b600160009054906101000a900473ffffffffffffffffffffffffffffffffffffffff1681565b600060046000838152602001908152602001600020600201549050919050565b60006004600083815260200190815260200160002060030160009054906101000a900473ffffffffffffffffffffffffffffffffffffffff169050919050565b60008054906101000a900473ffffffffffffffffffffffffffffffffffffffff1681565b600360009054906101000a900473ffffffffffffffffffffffffffffffffffffffff1681565b600060046000838152602001908152602001600020600101549050919050565b600160009054906101000a900473ffffffffffffffffffffffffffffffffffffffff1673ffffffffffffffffffffffffffffffffffffffff163373ffffffffffffffffffffffffffffffffffffffff1614610412576040517f08c379a0000000000000000000000000000000000000000000000000000000008152600401610409906108b7565b60405180910390fd5b60008054906101000a900473ffffffffffffffffffffffffffffffffffffffff1673ffffffffffffffffffffffffffffffffffffffff166323b872dd3330876040518463ffffffff1660e01b815260040161046f939291906108d7565b600060405180830381600087803b15801561048957600080fd5b505af115801561049d573d6000803e3d6000fd5b5050505060405180608001604052806001151581526020018381526020018281526020018473ffffffffffffffffffffffffffffffffffffffff168152506004600086815260200190815260200160002060008201518160000160006101000a81548160ff021916908315150217905550602082015181600101556040820151816002015560608201518160030160006101000a81548173ffffffffffffffffffffffffffffffffffffffff021916908373ffffffffffffffffffffffffffffffffffffffff16021790555090505050505050565b600260009054906101000a900473ffffffffffffffffffffffffffffffffffffffff1681565b60046020528060005260406000206000915090508060000160009054906101000a900460ff16908060010154908060020154908060030160009054906101000a900473ffffffffffffffffffffffffffffffffffffffff16905084565b60006004600083815260200190815260200160002060000160009054906101000a900460ff169050919050565b600073ffffffffffffffffffffffffffffffffffffffff82169050919050565b600061064d82610622565b9050919050565b61065d81610642565b82525050565b60006020820190506106786000830184610654565b92915050565b600080fd5b6000819050919050565b61069681610683565b81146106a157600080fd5b50565b6000813590506106b38161068d565b92915050565b6000602082840312156106cf576106ce61067e565b5b60006106dd848285016106a4565b91505092915050565b6106ef81610683565b82525050565b600060208201905061070a60008301846106e6565b92915050565b600061071b82610622565b9050919050565b61072b81610710565b82525050565b60006020820190506107466000830184610722565b92915050565b61075581610710565b811461076057600080fd5b50565b6000813590506107728161074c565b92915050565b600080600080608085870312156107925761079161067e565b5b60006107a0878288016106a4565b94505060206107b187828801610763565b93505060406107c2878288016106a4565b92505060606107d3878288016106a4565b91505092959194509250565b60008115159050919050565b6107f4816107df565b82525050565b600060808201905061080f60008301876107eb565b61081c60208301866106e6565b61082960408301856106e6565b6108366060830184610722565b95945050505050565b600060208201905061085460008301846107eb565b92915050565b600082825260208201905092915050565b7f4f6e6c792073656c6c65722063616e2063616c6c2074686973206d6574686f64600082015250565b60006108a160208361085a565b91506108ac8261086b565b602082019050919050565b600060208201905081810360008301526108d081610894565b9050919050565b60006060820190506108ec6000830186610722565b6108f96020830185610722565b61090660408301846106e6565b94935050505056fea2646970667358221220dc6160b894e029cccf6e399e4a77e992555bf3d53d3905e8e2ac612164ca1f6964736f6c63430008140033",
  "linkReferences": {},
  "deployedLinkReferences": {}
}